:020000040800F2
:1000000000000120C5020008CB020008CF02000852
:1000100041030008450300088D03000800000000AC
:10002000000000000000000000000000D5030008F0
:10003000D903000800000000DD030008E103000808
:10004000F1030008F1030008F1030008F1030008C0
:10005000F1030008F1030008F1030008F1030008B0
:10006000F1030008F1030008F1030008F1030008A0
:10007000F1030008F1030008F1030008F103000890
:10008000F1030008F1030008711B000800000000E4
:10009000000000000000000000000000F103000864
:1000A00055150008F1030008F1030008F1030008EA
:1000B00089140008B5140008E5140008F1030008CD
:1000C000F1030008F1030008F1030008F103000840
:1000D000F1030008F1030008F11800080000000017
:1000E000F1030008F1030008F1030008000000001C
:1000F000000000000000000000000000F103000804
:1001000000000000F10300081D150008F1030008BD
:1001100000000000000000000000000000000000DF
:10012000F1030008F1030008F1030008F1030008DF
:10013000F1030008000000000000000000000000C3
:10014000000000000000000000000000F1030008B3
:10015000F1030008F1030008F1030008F1030008AF
:10016000F1030008F1030008000000000000000097
:10017000000000000000000000000000000000007F
:1001800000000000F1030008000000000000000073
:10019000F103000800B583B000F006FF384B394A80
:1001A0001360394A1360394906E011681960043355
:1001B00004329842F9D82146354B994205D20A6853
:1001C0004B6801F10C048868F3E72E4B1A68314B39
:1001D0009A4200D0FEE72C4B1A682F4B9A42F9D175
:1001E000274B2E4A13602E4A13602E4B05E0002049
:1001F000106004329342FAD80B462B4A934204D241
:10020000194651F8082B5B68F4E7244B1B6813B9B7
:10021000234B1B6803B1FEE701F088F8694601A88B
:1002200000F0E8FD214B224CE41AA4100025AC425A
:1002300014DC204B204CE41AA4100025AC4213DC43
:100240000099019801F052FF05461C4B1C4CE41A22
:10025000A410002C0EDC284600F068FD134B53F868
:10026000253098470135E2E7124B53F8253098477F
:100270000135E3E7013C114B53F824309847E8E798
:10028000BABADECA00000020D8010020F40300083A
:100290000C0400087856341232547698DC010020A1
:1002A000480500200C0400081C0400081C04000879
:1002B0001C0400081C0400081C0400081C0400089E
:1002C0001C04000808B5FFF765FF00BEFEE71EF03E
:1002D000040F0CBFEFF30880EFF309807146414A29
:1002E00010472DE9F04182B004468846124B5E6B00
:1002F0009F6B9D6A1B6B13F0020F03D00E4BDB6AE2
:10030000002B0CDB0D4800F0F3FDCDF800803B46E0
:1003100032462946204600F053FE00BEFEE74BF66B
:10032000AB6100F0C7FE0028ECD04FF00042024B5A
:10033000DA6202B0BDE8F08100ED00E0B8320008FA
:1003400000BEFEE71EF0040F0CBFEFF30880EFF3D2
:1003500009807146244A10472DE9F04182B00446D5
:100360008846084B5E6B9F6B9D6A074800F0C0FD96
:10037000CDF800803B4632462946204600F020FE5C
:1003800000BEFEE700ED00E0C83200081EF0040FDA
:100390000CBFEFF30880EFF309807146134A104752
:1003A0002DE9F04182B004468846084B5E6B9F6B96
:1003B0009D6A074800F09CFDCDF800803B46324620
:1003C0002946204600F0FCFD00BEFEE700ED00E0FF
:1003D000D432000800BEFEE700BEFEE700BEFEE726
:1003E00070470000E302000859030008A103000859
:0403F00000BEFEE766
:1003F4009434000800000020DC010020943400083C
:100404000000001000000010DC0100204C0500205A
:080414000000001000000010C0
:1004200010B50446074B1868074BA3FB0030800942
:1004300000F08EF8002221464FF0FF3000F044F823
:10044000002010BD04000020D34D621008B50B4BF6
:100450001A6842F400721A601A6842F480621A60E4
:100460001A6842F480721A60032000F00FF80F201F
:10047000FFF7D6FF01F0F8FE002008BD003C024067
:10048000014B1868704700BFDC03002010B504461C
:10049000C31E042B0FD80A4AD36823F4E0631B045D
:1004A0001B0C240204F4E064234343F0BF6343F4D1
:1004B0000033D36010BDA421024800F00FFDEAE72D
:1004C00000ED00E0E430000870B505460C46164625
:1004D0000F2A24D80F2C27D81A4BDB68C3F302232A
:1004E000C3F10702042A28BF0422191D062920D9B6
:1004F000033B012101FA02F2013A14409C4001FA47
:1005000003F3013B33401C43002D14DB2401E4B210
:1005100005F1604505F5614585F8004370BDBC21D6
:10052000094800F0DBFCD5E7BD21074800F0D6FC08
:10053000D2E70023DDE705F00F052401E4B2034B09
:100540005C5570BD00ED00E0E430000814ED00E003
:100550000138B0F1807F0AD2064B5860F021064A7C
:1005600082F823100020986007221A60704701204B
:10057000704700BF10E000E000ED00E010B5044659
:10058000042800D038B9042C0BD0094A136823F092
:100590000403136010BD40F2B311064800F09EFC46
:1005A000F1E7034A136843F00403136010BD00BF72
:1005B00010E000E0E430000830B583B00446036882
:1005C0000F2B2DD8236813F0010F3CD06368012B4B
:1005D00005D9052B03D0FA219F4800F07FFC9F4BE3
:1005E0009B6803F00C03042B24D09C4B9B6803F006
:1005F0000C03082B19D02279994B1A706368002BD1
:1006000050D0FFF73DFF0546944B1B6813F4003FA5
:1006100019D1FFF735FF401B6428F5D90320D7E136
:10062000F5218D4800F05AFCCCE78C4B5B6813F445
:10063000800FE0D0894B1B6813F4003F03D0636840
:10064000002B00F0C281236813F0020F5CD0E36836
:10065000012B04D94FF496717F4800F03FFC2369C9
:100660001F2B2ED87D4B9B6813F00C0F34D07B4B87
:100670009B6803F00C03082B29D0E368002B72D091
:100680000122784B1A60FFF7FBFE0546734B1B688F
:1006900013F0020F58D1FFF7F3FE401B0228F5D9E3
:1006A000032095E1FFF7ECFE05466C4B1B6813F445
:1006B000003FC8D0FFF7E4FE401B6428F5D90320B3
:1006C00086E140F22D11644800F008FCCAE7634B54
:1006D0005B6813F4800FD0D1604B1B6813F0020FDE
:1006E00004D0E368012B01D0012071E15B4803686D
:1006F00023F0F8032169F82292FAA2F2B2FA82F208
:1007000001FA02F213430360236813F0080F4ED07E
:100710006369012B04D940F26D114F4800F0DEFBF4
:10072000636993B30122504B1A60FFF7A9FE054697
:100730004A4B5B6F13F0020F39D1FFF7A1FE401B4C
:100740000228F5D9032043E14448036823F0F80365
:100750002169F82292FAA2F2B2FA82F201FA02F2C6
:1007600013430360D0E700223E4B1A60FFF788FE78
:1007700005463A4B1B6813F0020FC5D0FFF780FE09
:10078000401B0228F5D9032022E10022364B1A60D3
:10079000FFF776FE0546314B5B6F13F0020F06D074
:1007A000FFF76EFE401B0228F5D9032010E12368F5
:1007B00013F0040F5ED0A368012B06D9052B04D0DB
:1007C00040F29711244800F089FB00230193234B4A
:1007D0001A6C42F080521A641B6C03F08053019330
:1007E000019B224A136843F480731360FFF748FEAD
:1007F00005461E4B1B6813F4807F06D1FFF740FEB1
:10080000401B0228F5D90320E2E0227A184B1A7027
:10081000A36883B1FFF734FE0546104B1B6F13F03E
:10082000020F27D1FFF72CFE401B41F2883398427C
:10083000F3D90320CCE0FFF723FE0546074B1B6FDF
:1008400013F0020F16D0FFF71BFE401B41F2883356
:100850009842F3D90320BBE0283100080038024059
:100860000238024000004742800E474200700040BC
:1008700070380240A369022B1FD8A369002B00F037
:10088000A680554A926802F00C02082A00F0A28065
:10089000022B18D00022514B1A60FFF7F1FD0446DD
:1008A0004D4B1B6813F0007F00F08D80FFF7E8FDD3
:1008B000001B0228F4D903208AE04FF4E67148486F
:1008C00000F00CFBD9E7E3693BB1B3F5800F04D02E
:1008D00040F2D511424800F001FB236A3F2B28D893
:1008E000636A323BB3F5BF7F29D8A36A022B0AD0D3
:1008F000042B08D0062B06D0082B04D04FF4EC7143
:10090000374800F0EBFAE36A043B0B2B1DD80022BA
:10091000324B1A60FFF7B4FD05462F4B1B6813F0EE
:10092000007F18D0FFF7ACFD401B0228F5D903204B
:100930004EE04FF4EB712A4800F0D0FAD0E740F2D5
:10094000D711274800F0CAFACFE740F2D91124485E
:1009500000F0C4FADBE7E369226A1343616A47F6F1
:10096000C07292FAA2F2B2FA82F201FA02F21343D0
:10097000A26A5208013A4FF4403191FAA1F1B1FA5A
:1009800081F18A401343E16A4FF0706292FAA2F259
:10099000B2FA82F201FA02F213430F4A53600122C3
:1009A0000E4B1A60FFF76CFD04460B4B1B6813F0EF
:1009B000007F06D1FFF764FD001B0228F5D9032054
:1009C00006E0002004E0002002E0012000E000201A
:1009D00003B030BD0120FBE7003802406000474211
:1009E00028310008214B9B6803F00C03042B3AD0FC
:1009F000082B01D01E4870471C4B586800F03F0080
:100A00005B6813F4800F1ED01A4AB2FBF0F2174B4A
:100A1000586847F6C073184093FAA3F3B3FA83F308
:100A2000D84000FB02F0114B5B6803F440334FF4F5
:100A3000403292FAA2F2B2FA82F2D34001335B0062
:100A4000B0FBF3F070470A4AB2FBF0F2074B58686C
:100A500047F6C073184093FAA3F3B3FA83F3D84070
:100A600000FB02F0DFE70348704700BF0038024098
:100A70000024F40000127A0070B504460D460368A5
:100A8000013B0E2B11D8072D15D88A4B1B6803F09C
:100A90000F039D4215D9EBB2864A1370136803F019
:100AA0000F039D420DD0012070BD40F237218248D6
:100AB00000F014FAE7E74FF40E717F4800F00EFAE9
:100AC000E3E7236813F0020F1DD0A368A3B1802BC6
:100AD00012D0902B10D0A02B0ED0B02B0CD0C02B4E
:100AE0000AD0D02B08D0E02B06D0F02B04D040F257
:100AF0004F21714800F0F2F9704A936823F0F00337
:100B0000A1680B439360236813F0010F6DD06368F5
:100B1000032B29D86368012B2CD09A1E012A30D9C7
:100B2000664A126812F0020F00F0C28063498A68B8
:100B300022F0030213438B60FFF7A2FC06466368B2
:100B4000012B25D0022B32D0032B3FD05B4B9B686F
:100B500013F00C0F49D0FFF793FC801B41F2883350
:100B60009842F3D9032070BD40F25621524800F05C
:100B7000B5F9CFE7514A126812F4003FD6D10120EF
:100B800070BD4E4A126812F0007FCFD1012070BDB7
:100B90004A4B9B6803F00C03042B26D0FFF770FC34
:100BA000801B41F288339842F2D9032070BD434B39
:100BB0009B6803F00C03082B17D0FFF761FC801B28
:100BC00041F288339842F2D9032070BD3B4B9B68B9
:100BD00003F00C030C2B08D0FFF752FC801B41F2F2
:100BE00088339842F2D9032070BD324B1B6803F062
:100BF0000F039D4209D2EAB22E4B1A701B6803F014
:100C00000F039D4201D0012070BD236813F0040F33
:100C100019D0E36883B1B3F5805F0DD0B3F5A05F61
:100C20000AD0B3F5C05F07D0B3F5E05F04D04FF44E
:100C30002D71214800F052F9204A936823F4E053C3
:100C4000E1680B439360236813F0080F1AD02369FF
:100C500083B1B3F5805F0DD0B3F5A05F0AD0B3F5D3
:100C6000C05F07D0B3F5E05F04D040F2BB2112486B
:100C700000F034F9114A936823F46043216943EA90
:100C8000C1039360FFF7AEFE0C4B9B6803F0F003CB
:100C9000F02292FAA2F2B2FA82F2D340084AD35C6E
:100CA000D840084B18600F20FFF7BAFB002070BD3A
:100CB000012070BD003C024028310008003802408D
:100CC0001831000804000020014B1868704700BF6D
:100CD0000400002008B5034800F022F9012000F0CC
:100CE00025F800BF5831000808B503460C4A1268C1
:100CF0005AB10B4A1068033323F003030344094A33
:100D0000934206D8064A136008BD0749044A116099
:100D1000EFE701F02FFD0C2303604FF0FF3008BD1B
:100D2000E001002000FC00204C05002000B530B997
:100D3000044D182420462946ABBE0446FEE7024D6A
:100D4000F7E700BF26000200230002002DE9F04172
:100D500084B0234F019703260396002302930124B6
:100D600001AD20462946ABBE80461E4BC3F800802D
:100D7000019703960423029320462946ABBE804682
:100D8000194BC3F80080019703960823029320466D
:100D90002946ABBE0446154B1C60B4F1FF3F01D0A1
:100DA00000230AE0104B1A68104B1A60F8E74FF066
:100DB000FF310F4A42F833100133132BF7DD0C4B90
:100DC000084A12681A6000225A6007490968996047
:100DD000DA600649096819615A6104B0BDE8F0811A
:100DE0006C31000860020020640200205C020020D8
:100DF000680200202DE9F04F83B083468A46354BC8
:100E000000934F2301936C46152630462146ABBE16
:100E10000646002E49D1B14600222E4B83F84F20C2
:100E2000009DB046374616E001F0AAFC204490F938
:100E30000130002B20DB092C1CD03B4653B9082E77
:100E400034DC222C1AD0272C18D0234B43F8265000
:100E500001360127013595F900403CB3002FE3D05E
:100E6000B8F1000F0DD0A045F4D100232B70C84677
:100E70004F46EFE70123E1E70123DFE70135A04615
:100E8000E3E701F07DFC204490F90130002B0ADB00
:100E9000092C06D04346002BDCD000232B7047469C
:100EA000D8E73B46F7E73B46F5E700262EB9094B66
:100EB00000221A70084A13600136074B002243F8DB
:100EC0002620CBF80060CAF80030FFF73FFF03B0E0
:100ED000BDE8F08FE40100203402002008B50A4686
:100EE0000146024800F004F8FFF7F4FE70310008F4
:100EF0000FB400B583B004AB53F8042B01938021E9
:100F0000064801F005FD002803DD0146034800F016
:100F100047F803B05DF804EB04B070470803002005
:100F200010B5044601F0C0FC0146204600F038F838
:100F30000121024800F034F810BD00BF343200082F
:100F40002DE9F04385B004460F4643560BB10E46DB
:100F50001EE0042528462146ABBE0446384605B0AF
:100F6000BDE8F08314F9011B04AA1A4402F8101C0E
:100F70000133AB42F6D304AA1344002203F8102C29
:100F8000E9464FF0040840464946ABBE8046761B12
:100F9000002EE3D03546102E28BF10250023E8E7A9
:100FA00008B5FFF7CDFF08BD08B500F003F9024B07
:100FB000024A9A6008BD00BF00ED00E00000000892
:100FC000F8B504460D4617461E462748FFF790FF22
:100FD00021682648FFF78CFF61682548FFF788FFE6
:100FE000A1682448FFF784FFE1682348FFF780FFEA
:100FF00021692248FFF77CFF61692148FFF778FFEC
:10100000A1692048FFF774FFE1691F48FFF770FFEF
:101010001E48FFF76DFF29461D48FFF769FF1D4C6D
:10102000E16A1D48FFF764FF216B1C48FFF760FF72
:10103000E16B1B48FFF75CFF15F0800F0AD115F438
:10104000004F0CD11748FFF753FF06991648FFF7DA
:101050004FFFF8BD39461548FFF74AFFEFE7314625
:101060001348FFF745FFEDE79C310008AC3100085D
:10107000BC310008CC310008DC310008EC3100083C
:10108000FC3100080C3200081C3200082C32000829
:101090003832000800ED00E04832000858320008FD
:1010A0006832000898320008A03200087832000840
:1010B0008832000838B583691B888B4201D0002034
:1010C00038BD044603684568013B302B69D8DFE82A
:1010D00003F046211C1C5E30332D191968191919AB
:1010E00019193619246819276839686868686868A2
:1010F0006868686868686868686868686868686870
:10110000681919004FF0FF330360A3690233A3612C
:10111000012038BD00230360F7E700230360F4E7F4
:1011200000232B606B60AB60EB60EEE70023036095
:10113000EBE7AB680360E8E700230360E5E7002323
:101140000360E2E7BFF34F8F1749CA6802F4E06219
:10115000164B1343CB60BFF34F8F00BFFDE714491D
:10116000286801F097FB70B96B6813B901232360FD
:10117000CBE7042B02D102232360C6E7082B02D160
:1011800003232360C1E74FF0FF332360BDE72B68E3
:10119000023B012B02D9AB680360B6E70023036072
:1011A000B3E7002038BD00BF00ED00E00400FA0501
:1011B0006C3100080C4B1A6842F001021A600021E1
:1011C00099601A6822F0847222F480321A60074A09
:1011D0005A601A6822F480221A60D9604FF00062C7
:1011E000034B9A60704700BF003802401030002463
:1011F00000ED00E0224B9B6803F00C03042B14D09D
:10120000082B16D01BB11F4A1F4B1A6002E01D4A63
:101210001D4B1A601A4B9B68C3F303131B4AD15C26
:10122000194A1368CB4013607047194A164B1A606D
:10123000F0E7134B5A685B6803F03F0312F4800F2A
:1012400013D0134AB2FBF3F20D4B5B68C3F3881360
:1012500003FB02F30A4A5268C2F301420132520010
:10126000B3FBF2F3084A1360D4E7064AB2FBF3F289
:10127000034B5B68C3F3881303FB02F3EAE700BF89
:10128000003802400024F40004000020E43200088A
:1012900000127A0070B594B000240194204B1A6CAF
:1012A00042F080521A641B6C03F080530193019B3F
:1012B00002941C4B1A6842F440421A601B6803F403
:1012C00040430293029B0123089309934FF4800348
:1012D0000F93082310934FF4A873119304261296CA
:1012E0000723139302250E9508A8FFF765F90F232E
:1012F0000393049505944FF480530693079429466D
:1013000003A8FFF7B9FBFFF7DFFC074BA3FB003097
:101310008009FFF71DF93046FFF730F914B070BDB2
:101320000038024000700040D34D621008B5FFF74E
:101330008DF8FFF7AFFFFFF75DFF08BD4FF080436B
:10134000586AC04300B27047014B586A00B27047F8
:1013500000040040024B586AC04300B2704700BF0F
:1013600000080040014B586A00B27047000C004072
:1013700000280CDB0C4B0D4A9A6103F580631B6956
:1013800013F4004300D00346094A53637047064BE9
:10139000084A9A6103F580631B6913F4804300D007
:1013A0004342034A53637047000402400010002088
:1013B000000001400020001000280CDB0C4B0D4AFF
:1013C0009A6103F580631B6913F4005300D0034650
:1013D000094A93637047064B084A9A6103F5806394
:1013E0001B6913F4805300D04342034A9363704750
:1013F00000040240004000800000014000800040E6
:1014000000280ADB0A4B0B4A9A611B6913F400633C
:1014100000D00346084AD3637047054B074A9A61D8
:101420001B6913F4806300D04342034AD3637047BF
:1014300000080240400080000000014080004000A1
:1014400000280CDB0C4B0D4A9A61A3F500631B6965
:1014500013F0800300D00346094A13647047064B1B
:10146000084A9A61A3F500631B6913F0400300D09A
:101470004342034A1364704700080240000100021F
:1014800000000140000200014FF080431A6922F081
:1014900001021A615B6AB3F5004F04D2044A138853
:1014A000013B13807047024A138801331380704751
:1014B0007C040020094B1A6922F001021A615A6A61
:1014C00047F6FE739A4204D9054A138E013B1386F0
:1014D0007047034A138E013313867047000400409F
:1014E0007C0400200B4B1A6922F001021A615B6A2E
:1014F000B3F5004F06D2084AB2F86030013BA2F8BB
:1015000060307047044AB2F860300133A2F86030AE
:10151000704700BF000800407C0400200B4B1A6994
:1015200022F001021A615A6A47F6FE739A4206D9FE
:10153000074AB2F89030013BA2F890307047044A55
:10154000B2F890300133A2F890307047000C0040A0
:101550007C0400206E4B1B6913F0010F00F0AC817E
:101560006B4BDB6813F0010F00F0A6812DE9F04111
:10157000674B4FF6FE721A6103F540431B6913F087
:10158000400F40D18023634A126912F0800F3CD192
:1015900040221343604A126912F4806F37D120222F
:1015A00013435D4A126912F4006F32D110221343C3
:1015B000594A126912F4805F2DD108221343564A0A
:1015C000126912F4005F28D104221343524A1269AF
:1015D00012F4804F23D1022213434F4A126912F4AE
:1015E000004F4E4A126808BF43F0010313804C4B72
:1015F0001A681378012B14D01BB1022B4FD0002393
:1016000013700026AEE00023BDE70022C1E70022F0
:10161000C6E70022CBE70022D0E70022D5E7002270
:10162000DAE73E4B1B681B88552B01D0002322E0D4
:10163000022313704FF47F424FF080435A624FF4FD
:10164000807338494B6201F580614A62364A5362C1
:1016500000230BE035495A00D418200100240C5215
:1016600001448A68324911600133DBB2032BF1D99E
:10167000C7E70133DBB2032BC3D8284A12681288AC
:1016800059000A4112F0010FF3D103EB430211019B
:10169000264A0A4491680A68143A0A60E9E723492D
:1016A0004B681B68A3F54323A3F29C43486B066871
:1016B0002048214C4D6E2D68D1F894100968A14244
:1016C00094BF00270127C82B98BF864294BF0123EF
:1016D0000023A64294BF002303F0010385428CBF80
:1016E000002303F00103A54294BF002303F001038C
:1016F00081428CBF002303F00103002B81D0002F17
:101700003FF47FAF002313707BE740F6B83456E018
:101710000040014000000240000802404405002053
:101720003C05002000040040000C00407C04002028
:1017300000350C0064350C009B340C0040F2E330A3
:1017400005EB45031A015D4B1344D8615B4A6B00FE
:101750005819010108461144C96A0244D0698847F2
:101760000136F6B2032E78D83546DFF85081730083
:1017700033441F0108EB070463681B68E360A36A36
:10178000984780B2608038F80720636800EB024019
:10179000186063681B68E168A2695B1A136063687C
:1017A0001B68A26812689B1A236164691C4440F696
:1017B000B8339C42A9DC424B9C42B8BF1C466A002D
:1017C0002A4411013D4B0B445C61186980EAE073C7
:1017D000A3EBE073642B38DD3A4B1B681F6800F005
:1017E000FFFD0146384600F04FFE0746364B1B68AA
:1017F000D3F80080204600F0F3FD0146404600F09B
:1018000043FE0146384600F037FD04462F4B1B6867
:101810001F6805EB45031A01284B13449B691868A0
:1018200000F0DEFD0146384600F02EFE014620465F
:1018300000F022FD00F078FFB0F5797FBFF67EAFB3
:10184000234B9842B8BF18467AE705EB45031A01C7
:101850001A4B13440022DA6178E71E4B1B783BB920
:101860001C4B01221A701C4A936843F0804393601A
:101870001A4B1B78CBB11A4A13780133DBB21370C1
:101880000A2B12D9174BDA6822F04002DA60DA68C4
:1018900022F08002DA6003F5DE334FF480129A61A1
:1018A00000230E4A13700E4A13700F4B1B681A88E0
:1018B0000E4B5A63BDE8F081704700BF7C040020E6
:1018C00048F4FFFF4005002014040020E40300203A
:1018D0001DFCFFFF8803002000200140D3030020EF
:1018E000D203002000440040E803002000440140EF
:1018F000924B1B6813F0280F00F0DD8010B48F4B63
:101900005A68D1B28E4B1B78072B00F2CF80DFE8EC
:1019100013F00800170021002E003A00CD007600D9
:101920009600552940F0C580854B01221A70854BE1
:1019300000221A70844B1A68138801331380B8E0B0
:10194000012903D07E4B00221A70B2E07C4B0222A8
:101950001A70AEE0D2B2022A05D87C4B1970784BCF
:1019600003221A70A5E0764B00221A70A1E0784B92
:1019700019705A2903D9724B00221A7099E0704BE2
:1019800004221A7095E0734B1970714B1A78114448
:101990005A290ADC6D4B1B78012B0AD00BB3022BA2
:1019A00026D0674B00221A7083E0654B00221A7024
:1019B0007FE0002301E00133DBB2FD2BFBD9664B56
:1019C00010219961654BD25C5C4B5A60DA6842F039
:1019D0008002DA60624B01221A70594B05221A709C
:1019E00067E0574B06221A705E4B00221A7060E0C7
:1019F000534B07221A705B4B00221A7059E0594B67
:101A00001B78544A1478621E934203DB564AD15421
:101A100000230EE0581C534A1070534AD15448E03A
:101A20004B4A12781A445049C85C4C49505401330F
:101A3000DBB29C42F4D8424B00221A7039E0494B89
:101A40001B78444A1478621E934203DB464AD15401
:101A500000230EE0581C434A1070434AD15428E03A
:101A60003B4A12781A444049C85C3C4950540133FF
:101A7000DBB29C42F4D82023354A1370354A1370E8
:101A8000002301E00133DBB2FD2BFBD9324B1022E6
:101A90009A61324B93F82020284B5A60DA6842F062
:101AA0008002DA602E4B01221A7002E0244B0022E1
:101AB0001A7010BC7047214B1B6813F0400F0BD1FC
:101AC0001E4B1B6813F0800F05D01D4B1B78052B98
:101AD00019D0072B17D07047184BDA6822F0400254
:101AE000DA60DA6822F08002DA6003F5DE334FF460
:101AF00080129A611D4B1A68138801331380104BB2
:101B000000221A707047164B1B78124A12789342C3
:101B100009D30A4BDA6822F08002DA60DA6842F010
:101B20004002DA6070470A4A12781A440B49515C45
:101B3000024A516001330A4A137070470044004062
:101B4000D3030020D2030020740400208C03002063
:101B50008A0300208B0300200000024018040020AC
:101B6000D1030020D00300209003002010040020A7
:101B70000E4B1B78062B0BD90D4AD26C0D4951F830
:101B800023301A800023094A13700B4A13707047E0
:101B9000074AD06C074951F82310088001330349E4
:101BA0000B70936843F08043936070478903002073
:101BB00000200140F003002088030020174AD3686A
:101BC00023F4E0631B041B0C43F0052343F47A0366
:101BD000D360134B302283F8262340225A6083F8C7
:101BE00018234FF080721A60502283F81C234FF0A4
:101BF0008051196083F81D234FF00051196083F85C
:101C00001E234FF08041196083F832234FF4802265
:101C10005A60602183F812131A60704700ED00E0EB
:101C200000E100E0274B1A6B42F001021A631A6BC5
:101C300042F002021A631A6B42F004021A63A3F51F
:101C400050531A6842F0AA421A605A6822F470424D
:101C50005A609A6842F07F429A60DA6822F07F42C6
:101C6000DA6003F580631A6842F4AA221A605A689F
:101C700022F470725A609A6842F47F229A60DA689D
:101C800022F47F22DA60104A116821F47041116059
:101C90001968C1F313011960916841F470419160B2
:101CA00099686FEA01316FEA11319960D16841F4A6
:101CB000A041D160DA6842F0AA4242F4A002DA60A0
:101CC000704700BF00380240000002400F4B1A6806
:101CD00042F0A0021A601A6842F480721A609A6890
:101CE00042F47C729A601A6A42F4EE421A62084A1E
:101CF000136C43F400331364064B42F22C02DA6097
:101D000000221A615A612D229A6070470000024039
:101D10000038024000440040F0B5634A136843F0C5
:101D200000431360614B196841F0800119609168AC
:101D300041F040419160996841F0C0019960516A59
:101D400041F080515162196A41F480511962196859
:101D500041F400711960196841F4006119609968D3
:101D600041F440719960996841F440619960196A41
:101D700041F400311962196A41F4001119621968BD
:101D800041F400511960196841F4004119609968E3
:101D900041F440519960996841F440419960196A51
:101DA00041F000711962196A41F00051196213681B
:101DB00043F002031360136843F008031360936851
:101DC00043F003039360936843F00C039360136A3A
:101DD00043F002031362136A43F02003136202F517
:101DE0006052136C43F0010313644FF080434FF0D3
:101DF000010CC3F800C0D96841EA0C01D96003277F
:101E00009F6040F201169E610025DD6111241C6275
:101E10004FF6FF71D9622648B0F802E0A1EB0E0E32
:101E2000C3F824E0136C43F002031364214BC3F89E
:101E300000C0D3F80CE04EEA0C0EC3F80CE09F6033
:101E40009E61DD611C62D962B0F832E0C3F824E023
:101E5000136C43F004031364174BC3F800C0D3F8AA
:101E60000CE04EEA0C0EC3F80CE09F609E61DD6151
:101E70001C62D962B0F862E0A1EB0E0EC3F824E058
:101E8000136C43F0080313640C4BC3F800C0DA680A
:101E900042EA0C02DA609F609E61DD611C62D962D9
:101EA000B0F892205A62F0BD0000024000040240E7
:101EB0007C0400200004004000080040000C0040AA
:101EC0001C4B1A6842F42A021A609A6842F47F0294
:101ED0009A605A6822F470625A60DA6822F47F02CB
:101EE000DA605A6A42F4885242F011025A62124A87
:101EF000536C43F001035364104B00229A6240F28A
:101F0000E732DA6201225A611A6842F081021A60ED
:101F10001A6A42F44C5242F033021A62996947F647
:101F2000780001439961DA690243DA614FF40042B3
:101F30005A6470470000024000380240000001402F
:101F40001D4A136B43F0020313631C4B196841F4E1
:101F500000311960996821F440319960596821F481
:101F600080715960D96841F48031D960596A41F073
:101F700003015962536C43F400335364104B5322F2
:101F80009A6241F28732DA620E4A126812885A6304
:101F900000225A625A6942F001025A611A6842F0FC
:101FA00081021A601A6A42F003021A629A6942F0C8
:101FB00068029A61704700BF003802400004024086
:101FC00000440140E803002038490B6843F00F0348
:101FD0000B60374A13686FEA13336FEA03331360F9
:101FE000CB6823F00F03CB60D36823F47F6323F027
:101FF0000F03D36002F54052536C43F48073536473
:102000002C4B4FF412625A605A6822F460425A60B4
:10201000DA6A22F47002DA62DA6A42F4E002DA6220
:102020000022DA601A61DA6842F00102DA60DA68E6
:1020300042F00802DA60DA6842F04002DA60DA68F8
:1020400042F40072DA60DA6842F48052DA60DA68E8
:1020500042F40042DA601A6942F080721A611A6929
:1020600042F000621A615A6B02F040425A631A6BE6
:1020700022F47F7222F003021A635A6B42F4D622D2
:1020800042F4B5725A635A6B42F0F7525A631A6BB4
:1020900042F494721A639A6842F4806242F0010238
:1020A0009A609A6842F080429A6070470004024049
:1020B00000080240002001400A4A536C43F4803378
:1020C0005364094B5322DA6263229A6201225A61F5
:1020D000DA6842F00102DA601A6842F085021A609A
:1020E000704700BF0038024000400140F8B50023AF
:1020F00028E09800444900EB010C444E5A00D418E3
:102100002701F519C5F808C000F110040C44AC61B2
:1021100000F120046018686002F130000844286271
:1021200002F13800084468620C20F0534FF4545018
:10213000688000F54020605041F82300002169616B
:102140000133DBB2032BD4D9304B314A9A62314A86
:102150009A65314AC3F88820304AC3F8B820304A1B
:10216000DA62304ADA65304AC3F88C202F4AC3F865
:10217000BC20002308E05A00303223490A442C498D
:1021800041F823200133DBB2072BF4D9294B2A4A2B
:102190001360991C294A1160191D294A116003F125
:1021A0000801284A116003F10C01274A116003F16C
:1021B0001001264A116003F11201254A116003F152
:1021C0001401244A116003F11601234A116003F13E
:1021D0001801224A11604FF07E525A60204A9A60DC
:1021E000204ADA60FFF7EAFCFFF71CFDFFF794FDD9
:1021F000FFF766FEFFF760FFFFF768FDFFF7E4FEFD
:10220000FFF79EFEFEE700BF180400207C040020BC
:102210003D13000849130008551300086513000812
:1022200071130008B91300080114000841140008D4
:10223000F0030020580400203C050020E8030020A3
:102240004005002014040020E40300204405002081
:102250007404002010040020EC0300207804002007
:1022600017B7D138ACC527377047000080F0004061
:1022700002E000BF81F0004142001FBF5FEA41035E
:1022800092EA030F7FEA226C7FEA236C6AD04FEA5E
:102290001262D2EB1363C1BFD218414048404140A3
:1022A000B8BF5B42192B88BF704710F0004F40F455
:1022B000000020F07F4018BF404211F0004F41F471
:1022C000000121F07F4118BF494292EA030F3FD03D
:1022D000A2F1010241FA03FC10EB0C00C3F1200350
:1022E00001FA03F100F0004302D5494260EB4000DF
:1022F000B0F5000F13D3B0F1807F06D340084FEA4A
:10230000310102F10102FE2A51D2B1F1004F40EB3E
:10231000C25008BF20F0010040EA030070474900A6
:1023200040EB000010F4000FA2F10102EDD1B0FA71
:1023300080FCACF1080CB2EB0C0200FA0CF0AABF66
:1023400000EBC25052421843BCBFD0401843704704
:1023500092F0000F81F4000106BF80F4000001320A
:10236000013BB5E74FEA41037FEA226C18BF7FEAE1
:10237000236C21D092EA030F04D092F0000F08BF23
:102380000846704790EA010F1CBF0020704712F00A
:102390007F4F04D1400028BF40F00040704712F149
:1023A00000723CBF00F50000704700F0004343F0AE
:1023B000FE4040F4000070477FEA226216BF0846E4
:1023C0007FEA23630146420206BF5FEA412390EAA7
:1023D000010F40F4800070474FF0000304E000BF9D
:1023E00010F0004348BF40425FEA000C08BF70474E
:1023F00043F0964301464FF000001CE050EA010212
:1024000008BF70474FF000030AE000BF50EA010226
:1024100008BF704711F0004302D5404261EB410113
:102420005FEA010C02BF84460146002043F0B64338
:1024300008BFA3F18053A3F50003BCFA8CF2083A5D
:10244000A3EBC25310DB01FA02FC634400FA02FC66
:10245000C2F12002BCF1004F20FA02F243EB02006D
:1024600008BF20F00100704702F1200201FA02FCCF
:10247000C2F1200250EA4C0021FA02F243EB0200C2
:1024800008BF20EADC7070474FF0FF0C1CEAD05206
:102490001EBF1CEAD15392EA0C0F93EA0C0F6FD0C7
:1024A0001A4480EA010C400218BF5FEA41211ED0A5
:1024B0004FF0006343EA501043EA5111A0FB013191
:1024C0000CF00040B1F5000F3EBF490041EAD37166
:1024D0005B0040EA010062F17F02FD2A1DD8B3F1E2
:1024E000004F40EBC25008BF20F00100704790F051
:1024F000000F0CF0004C08BF49024CEA502040EAA3
:1025000051207F3AC2BFD2F1FF0340EAC250704768
:1025100040F400004FF00003013A5DDC12F1190FA6
:10252000DCBF00F000407047C2F10002410021FA18
:1025300002F1C2F1200200FA02FC5FEA310040F130
:10254000000053EA4C0308BF20EADC70704792F0A9
:10255000000F00F0004C02BF400010F4000F013AE1
:10256000F9D040EA0C0093F0000F01F0004C02BFDC
:10257000490011F4000F013BF9D041EA0C018FE74B
:102580000CEAD15392EA0C0F18BF93EA0C0F0AD051
:1025900030F0004C18BF31F0004CD8D180EA010077
:1025A00000F00040704790F0000F17BF90F0004F10
:1025B000084691F0000F91F0004F14D092EA0C0FF2
:1025C00001D142020FD193EA0C0F03D14B0218BF85
:1025D000084608D180EA010000F0004040F0FE40CB
:1025E00040F40000704740F0FE4040F44000704767
:1025F0004FF0FF0C1CEAD0521EBF1CEAD15392EAE6
:102600000C0F93EA0C0F69D0A2EB030280EA010CD5
:1026100049024FEA402037D04FF0805343EA11116E
:1026200043EA10130CF000408B4238BF5B0042F1CC
:102630007D024FF4000C8B4224BF5B1A40EA0C0071
:10264000B3EB510F24BFA3EB510340EA5C00B3EBA3
:10265000910F24BFA3EB910340EA9C00B3EBD10F91
:1026600024BFA3EBD10340EADC001B0118BF5FEAE3
:102670001C1CE0D1FD2A3FF650AF8B4240EBC2500C
:1026800008BF20F0010070470CF0004C4CEA5020CD
:102690007F32C2BFD2F1FF0340EAC250704740F41C
:1026A00000004FF00003013A37E792F0000F00F00E
:1026B000004C02BF400010F4000F013AF9D040EA8C
:1026C0000C0093F0000F01F0004C02BF490011F420
:1026D000000F013BF9D041EA0C0195E70CEAD15318
:1026E00092EA0C0F08D142027FF47DAF93EA0C0FFF
:1026F0007FF470AF084676E793EA0C0F04D14B02E3
:102700003FF44CAF08466EE730F0004C18BF31F094
:10271000004CCAD130F000427FF45CAF31F000438E
:102720007FF43CAF5FE700BF4FEA4002B2F1FE4FDB
:102730000FD34FF09E03B3EB12620DD94FEA002383
:1027400043F0004310F0004F23FA02F018BF40425C
:1027500070474FF00000704712F1610F01D1420243
:1027600005D110F0004008BF6FF0004070474FF0F7
:1027700000007047014B1868704700BF0800002038
:10278000044B054A1B681B6A002B08BF1346D3F88D
:10279000EC007047080000206C00002082B001B9F6
:1027A00001A942B14BB113780B601278101C18BF0D
:1027B000012002B070471046FBE76FF00100F8E718
:1027C00070B5CD1C25F0030508350C2D38BF0C2540
:1027D000002D064601DBA94203D90C2333600020FB
:1027E00070BD00F0B0F8214A1468214691B9204C20
:1027F00023681BB9304600F03DF82060294630467A
:1028000000F038F8431C24D10C233360304600F02C
:102810009BF8E4E70B685B1B18D40B2B0FD90B60FC
:10282000CD50CC18304600F08FF804F10B00231D7A
:1028300020F00700C31AD3D05A42E250D0E78C42AE
:102840004B6816BF636013600C46EBE70C464968A3
:10285000CCE7C41C24F00304A04205D0211A304662
:1028600000F008F80130CFD02560DBE7D40300206A
:10287000D803002038B5064C0023054608462360DF
:10288000FEF732FA431C02D1236803B12B6038BD36
:10289000E003002010F8012B11F8013B012A28BFAA
:1028A0009A42F7D0D01A7047034613F8012B002A3A
:1028B000FBD1181A0138704730B5141E05469BB07D
:1028C000184605DA8B232B604FF0FF301BB030BD6C
:1028D0004FF40273ADF80C3014BF04F1FF332346FC
:1028E000029305934FF6FF7300910491ADF80E30FB
:1028F00002461E9B6946284600F0D0F8431CBCBF28
:102900008B232B60002CE1D0009B00221A70DDE7A6
:1029100007B5009313460A46014603480068FFF7CF
:10292000CBFF03B05DF804FB0800002049B1FF2A8B
:1029300085BF8A2303600A704FF0FF3098BF0120E3
:1029400070470846704770477047000038B5054625
:10295000002945D051F8043C0C1F002BB8BFE418E7
:10296000FFF7F1FF1F4A1368104633B96360146024
:102970002846BDE83840FFF7E7BFA3420CD92168DD
:102980006218934204BF1A685B68636004BF521800
:1029900022600460ECE713465A680AB1A242FAD9F1
:1029A00019685818A0420BD1206801445818824277
:1029B0001960DDD1106852685A6001441960D7E788
:1029C00002D90C232B60D3E7206821188A4204BF68
:1029D00011685268626004BF091821605C60C7E733
:1029E00038BD00BFD40300202DE9F0478E689E4219
:1029F00082460C469046994637D88A8912F4906FE1
:102A000031D0256809696F1A6569022305EB450510
:102A100095FBF3F509F101033B449D4238BF1D4688
:102A2000530530D52946FFF7CBFE064650B90C2397
:102A3000CAF80030A38943F04003A3814FF0FF3070
:102A4000BDE8F0873A46216900F0FAFAA38923F439
:102A5000906343F08003A381266165613E44ED1BD2
:102A60002660A5604E464E4500D94E463246414648
:102A7000206800F0F0FAA3689B1BA36023681E4443
:102A800026600020DCE72A4600F0FEFA0646002811
:102A9000E2D121695046FFF759FFC8E72DE9F04F11
:102AA0009DB0804603938B891D060C4616460FD5B4
:102AB0000B696BB94021FFF783FE2060206128B9C4
:102AC0000C23C8F800304FF0FF30C7E040236361AB
:102AD0000023099320238DF8293030238DF82A30E4
:102AE0004FF0010B37463D4615F8013B0BB1252B46
:102AF0003ED1B7EB060A0BD053463246214640463C
:102B0000FFF772FF013000F0A480099B5344099342
:102B10003B78002B00F09D8000234FF0FF32CDE981
:102B20000523049307938DF853301A932F460522FB
:102B300017F8011B4F4800F033FA049BD0B9D906AF
:102B400044BF20228DF853201A0744BF2B228DF852
:102B500053202A782A2A15D0079A2F4600200A25C2
:102B6000394611F8013B303B092B4DD9B8B10FE084
:102B70002F46B8E73F4A801A0BFA00F0184304903A
:102B80003D46D3E7039A111D12680391002A01DB29
:102B9000079204E0524243F00203079204933B7809
:102BA0002E2B0CD17B782A2B33D1039B1A1D1B684B
:102BB0000392002BB8BF4FF0FF33023705932E4D21
:102BC00039780322284600F0EBF938B14023401B46
:102BD00003FA00F0049B0343013704933978274834
:102BE0008DF8281006227E1C00F0DAF9002838D073
:102BF000234B13BB039B073323F0070308330393D3
:102C0000099B4B4409936DE705FB023201200F46F7
:102C1000A6E700230137059319460A25384610F820
:102C2000012B303A092A03D9002BC8D00591C6E7F9
:102C300005FB012101230746F0E703AB0093224681
:102C4000104B04A94046AFF30080B0F1FF3F81462E
:102C5000D6D1A3895B063FF536AF09981DB0BDE814
:102C6000F08F03AB00932246064B04A9404600F0C8
:102C700081F8EAE75F340008653400086934000829
:102C800000000000E92900082DE9F04791461F46A1
:102C90008A680B69DDF820809342B8BF1346C9F8F3
:102CA000003091F8432006460C4612B10133C9F8B2
:102CB00000302368990642BFD9F800300233C9F8C2
:102CC0000030256815F0060507D104F1190AE368FC
:102CD000D9F800209B1AAB4228DC94F843302268D4
:102CE000003318BF012392062DD404F14302394664
:102CF0003046C047013020D02368E568D9F800206D
:102D000003F00603042B08BFAD1AA36822690CBFA9
:102D100025EAE57500259342C4BF9B1AED184FF0D4
:102D200000091A344D451AD1002008E0012352460B
:102D300039463046C047013003D14FF0FF30BDE87F
:102D4000F0870135C3E7E1185A1C302081F84300B1
:102D5000224494F8451082F843100233C5E701235A
:102D6000224639463046C0470130E6D009F1010914
:102D7000D8E700002DE9F04301F1430C0C46097E31
:102D800085B06E291746064698460C9A00F0B38027
:102D900022D8632936D00AD8002900F0B9805829F2
:102DA00000F0838004F1420584F8421032E0642987
:102DB00001D06929F6D120681368050603F10401E2
:102DC0002AD51B681160002B03DA2D225B4284F8A0
:102DD00043206F480A2239E0732900F09D8008D80B
:102DE0006F2920D07029DDD1236843F020032360B0
:102DF00003E0752917D07829D4D1782384F8453099
:102E0000644855E01368191D1B68116004F1420500
:102E100084F8423001238CE01B68116010F0400FF1
:102E200018BF1BB2CFE713682568181D106028066D
:102E300001D51B6802E06806FBD51B8854486F2942
:102E400014BF0A220822002184F843106568A56097
:102E5000002DC0F29580216821F004012160002B33
:102E60003DD1002D40F08E806546082A0BD12368A5
:102E7000DB0708D5236962689A42DEBF302305F874
:102E8000013C05F1FF35ACEB05032361CDF8008073
:102E90003B4603AA21463046FFF7F6FE01304DD1EE
:102EA0004FF0FF3005B0BDE8F083394884F8451095
:102EB000136821681D1D1B6815600A060BD5CA071B
:102EC00044BF41F0200121601BB9226822F020029A
:102ED00022601022B7E74D0648BF9BB2EFE7654678
:102EE000B3FBF2F102FB1133C35C05F8013D0B4665
:102EF0000029F5D1B9E7136825686169181D1060CC
:102F000028061B6801D5196002E06A06FBD5198006
:102F1000002323616546B9E71368191D11601D6818
:102F200062680021284600F03BF808B1401B606051
:102F300063682361002384F84330A7E723692A46A6
:102F400039463046C0470130AAD023689B0713D4C6
:102F5000E068039B9842B8BF1846A3E701234A469E
:102F600039463046C04701309AD00135E368039AAC
:102F70009B1AAB42F2DCEBE7002504F11909F5E7F7
:102F8000002BACD1037884F8423004F142056CE7A1
:102F900070340008813400080000000000000000C8
:102FA00001F0FF01102A2BDB10F0070F08D010F8FA
:102FB000013B013A8B422DD010F0070F42B3F6D1FE
:102FC000F0B441EA012141EA014122F007047FF017
:102FD00000070023F0E80256083C85EA010586EA6E
:102FE000010685FA47F5A3FA87F586FA47F6A5FAAA
:102FF00087F68EB9EED1F0BC01F0FF0102F00702B6
:1030000032B110F8013B013A83EA010313B1F8D160
:103010000020704701387047002D06BF3546033841
:10302000073815F0010F07D1013015F4807F02BF7A
:10303000013015F4C03F0130F0BC0138704700BFCB
:1030400010B5431E0A44914200D110BD11F8014B46
:1030500003F8014FF7E7884210B501EB020307D8E8
:10306000421E99420AD011F8014B02F8014FF8E7CD
:103070008342F5D98118D21AD34200D110BD13F87A
:10308000014D01F8014DF7E7F8B5074614460E4625
:1030900021B91146BDE8F840FFF792BB22B9FFF70E
:1030A00055FC25462846F8BD00F014F8A0420FD282
:1030B00021463846FFF784FB05460028F2D031460A
:1030C0002246FFF7BDFF31463846FFF73FFCE9E7F0
:1030D0003546E7E751F8043C181F002BBCBF0B58DE
:1030E000C01870472E2E2F73797374656D2F73720D
:1030F000632F73746D333266342D68616C2F737473
:103100006D3332663478785F68616C5F636F7274B8
:1031100065782E6300000000000000000102030437
:1031200001020304060708092E2E2F7379737465B4
:103130006D2F7372632F73746D333266342D686133
:103140006C2F73746D3332663478785F68616C5FAE
:103150007263632E6300000061626F727428292C11
:103160002065786974696E672E2E2E003A7474009B
:103170006173736572745F706172616D2829206676
:1031800061696C65643A2066696C6520222573224A
:103190002C206C696E652025640A000053746163FD
:1031A0006B206672616D653A0A0000002052302083
:1031B0003D2020253038580A0000000020523120E0
:1031C0003D2020253038580A0000000020523220CF
:1031D0003D2020253038580A0000000020523320BE
:1031E0003D2020253038580A00000000205231329E
:1031F000203D20253038580A00000000204C522085
:103200003D2020253038580A00000000205043207F
:103210003D2020253038580A00000000205053522D
:10322000203D20253038580A000000004653522F18
:103230004641523A0A0000002043465352203D20A6
:1032400020253038580A00002048465352203D209F
:1032500020253038580A00002044465352203D2093
:1032600020253038580A00002041465352203D2086
:1032700020253038580A0000204D4D464152203D4F
:1032800020253038580A00002042464152203D2077
:1032900020253038580A00004D6973630A00000089
:1032A000204C522F4558435F52455455524E3D20B5
:1032B000253038580A0000005B4861726446617529
:1032C0006C745D0A000000005B4275734661756CAA
:1032D000745D0A005B55736167654661756C745D6A
:1032E0000A000000000000000000000001020304CA
:1032F00006070809000000000000000000000000B0
:1033000000000000000000000000000000000000BD
:1033100000000000000000000000000000000000AD
:10332000000000000000000000000000000000009D
:10333000000000000000000000000000000000008D
:10334000000000000000000000000000000000007D
:10335000000000004300504F534958002E00002049
:103360002020202020202020282828282820202035
:1033700020202020202020202020202020202088E5
:103380001010101010101010101010101010100449
:103390000404040404040404041010101010101099
:1033A000414141414141010101010101010101018D
:1033B00001010101010101010101101010101010A3
:1033C000424242424242020202020202020202025D
:1033D0000202020202020202020210101010200079
:1033E00000000000000000000000000000000000DD
:1033F00000000000000000000000000000000000CD
:1034000000000000000000000000000000000000BC
:1034100000000000000000000000000000000000AC
:10342000000000000000000000000000000000009C
:10343000000000000000000000000000000000008C
:10344000000000000000000000000000000000007C
:103450000000000000000000000000000000002349
:103460002D302B2000686C4C006566674546470090
:1034700030313233343536373839414243444546AA
:103480000030313233343536373839616263646540
:023490006600D4
:10349400785634120024F4000C00002000000000D0
:1034A4001433000834330008F4320008000000002C
:1034B4000000000000000000000000000000000008
:1034C40000000000000000000000000000000000F8
:1034D40000000000000000000000000000000000E8
:1034E40000000000000000000000000000000000D8
:1034F4000000000000000000000000004300000085
:1035040000000000000000000000000000000000B7
:103514000000000000000000000000004300000064
:103524000000000000000000000000000000000097
:103534000000000000000000000000004300000044
:103544000000000000000000000000000000000077
:103554000000000000000000000000004300000024
:103564000000000000000000000000000000000057
:103574000000000000000000000000004300000004
:103584000000000000000000000000000000000037
:1035940000000000000000000000000043000000E4
:1035A4000000000000000000000000000000000017
:1035B40000000000000000000000000043000000C4
:1035C40000000000000000000000000000000000F7
:1035D4000000000000000000000000002D29000889
:1035E4009D270008000000005E3300085C330008DB
:1035F4006434000864340008643400086434000847
:103604006434000864340008643400086434000836
:1036140064340008FFFFFFFFFFFFFFFFFFFFFFFF12
:10362400FFFF00000100415343494900000000002E
:103634000000000000000000000000000000000086
:10364400000000000000415343494900000000000D
:103654000000000000000000000000000000000066
:0C366400000000000000000032547698C6
:040000050800019559
:00000001FF
